{
    "_format": "hh-sol-artifact-1",
    "contractName": "Complaints",
    "sourceName": "contracts/Complaints.sol",
    "abi": [
        {
            "inputs": [],
            "stateMutability": "nonpayable",
            "type": "constructor"
        },
        {
            "anonymous": false,
            "inputs": [
                {
                    "indexed": false,
                    "internalType": "address",
                    "name": "_user",
                    "type": "address"
                },
                {
                    "indexed": false,
                    "internalType": "string",
                    "name": "url",
                    "type": "string"
                }
            ],
            "name": "ComplaintCreated",
            "type": "event"
        },
        {
            "anonymous": false,
            "inputs": [
                {
                    "indexed": false,
                    "internalType": "address payable",
                    "name": "_user",
                    "type": "address"
                },
                {
                    "indexed": false,
                    "internalType": "uint256",
                    "name": "amount",
                    "type": "uint256"
                }
            ],
            "name": "RewardUser",
            "type": "event"
        },
        {
            "inputs": [
                {
                    "internalType": "address payable",
                    "name": "_user",
                    "type": "address"
                }
            ],
            "name": "Reward",
            "outputs": [],
            "stateMutability": "payable",
            "type": "function"
        },
        {
            "inputs": [
                {
                    "internalType": "address",
                    "name": "_user",
                    "type": "address"
                },
                {
                    "internalType": "string",
                    "name": "url",
                    "type": "string"
                }
            ],
            "name": "createComplaint",
            "outputs": [],
            "stateMutability": "nonpayable",
            "type": "function"
        },
        {
            "inputs": [
                {
                    "internalType": "string",
                    "name": "url",
                    "type": "string"
                }
            ],
            "name": "createReplies",
            "outputs": [],
            "stateMutability": "nonpayable",
            "type": "function"
        },
        {
            "inputs": [
                {
                    "internalType": "address",
                    "name": "_user",
                    "type": "address"
                }
            ],
            "name": "displayComplaint",
            "outputs": [
                {
                    "internalType": "string[]",
                    "name": "",
                    "type": "string[]"
                }
            ],
            "stateMutability": "view",
            "type": "function"
        },
        {
            "inputs": [],
            "name": "displayReplies",
            "outputs": [
                {
                    "internalType": "string[]",
                    "name": "",
                    "type": "string[]"
                }
            ],
            "stateMutability": "view",
            "type": "function"
        },
        {
            "inputs": [],
            "name": "getBalance",
            "outputs": [
                {
                    "internalType": "uint256",
                    "name": "",
                    "type": "uint256"
                }
            ],
            "stateMutability": "view",
            "type": "function"
        },
        {
            "inputs": [],
            "name": "owner",
            "outputs": [
                {
                    "internalType": "address",
                    "name": "",
                    "type": "address"
                }
            ],
            "stateMutability": "view",
            "type": "function"
        },
        {
            "inputs": [],
            "name": "user",
            "outputs": [
                {
                    "internalType": "address payable",
                    "name": "",
                    "type": "address"
                }
            ],
            "stateMutability": "view",
            "type": "function"
        },
        {
            "stateMutability": "payable",
            "type": "receive"
        }
    ],
    "bytecode": "0x608060405234801561001057600080fd5b5033600160006101000a81548173ffffffffffffffffffffffffffffffffffffffff021916908373ffffffffffffffffffffffffffffffffffffffff160217905550611118806100616000396000f3fe60806040526004361061007f5760003560e01c80634f8632ba1161004e5780634f8632ba1461014557806357488064146101705780638da5cb5b1461018c57806396865ba9146101b757610086565b806301980e0c1461008b5780631092cddc146100b457806312065fe0146100f15780631d79e3ef1461011c57610086565b3661008657005b600080fd5b34801561009757600080fd5b506100b260048036038101906100ad9190610987565b6101e2565b005b3480156100c057600080fd5b506100db60048036038101906100d691906109e3565b610291565b6040516100e89190610b51565b60405180910390f35b3480156100fd57600080fd5b506101066103a9565b6040516101139190610b8c565b60405180910390f35b34801561012857600080fd5b50610143600480360381019061013e9190610ba7565b6103b1565b005b34801561015157600080fd5b5061015a6104fd565b6040516101679190610c11565b60405180910390f35b61018a60048036038101906101859190610c58565b610521565b005b34801561019857600080fd5b506101a1610671565b6040516101ae9190610c94565b60405180910390f35b3480156101c357600080fd5b506101cc610697565b6040516101d99190610b51565b60405180910390f35b600260008373ffffffffffffffffffffffffffffffffffffffff1673ffffffffffffffffffffffffffffffffffffffff168152602001908152602001600020819080600181540180825580915050600190039060005260206000200160009091909190915090816102539190610ebb565b507f0fed8c96a67dfedd8d310632d543180833f046cfe2f02dbc3b533e0e57d60f088282604051610285929190610fd7565b60405180910390a15050565b6060600260008373ffffffffffffffffffffffffffffffffffffffff1673ffffffffffffffffffffffffffffffffffffffff168152602001908152602001600020805480602002602001604051908101604052809291908181526020016000905b8282101561039e57838290600052602060002001805461031190610cde565b80601f016020809104026020016040519081016040528092919081815260200182805461033d90610cde565b801561038a5780601f1061035f5761010080835404028352916020019161038a565b820191906000526020600020905b81548152906001019060200180831161036d57829003601f168201915b5050505050815260200190600101906102f2565b505050509050919050565b600047905090565b600160009054906101000a900473ffffffffffffffffffffffffffffffffffffffff1673ffffffffffffffffffffffffffffffffffffffff163373ffffffffffffffffffffffffffffffffffffffff161461040b57600080fd5b60026000600160009054906101000a900473ffffffffffffffffffffffffffffffffffffffff1673ffffffffffffffffffffffffffffffffffffffff1673ffffffffffffffffffffffffffffffffffffffff1681526020019081526020016000208190806001815401808255809150506001900390600052602060002001600090919091909150908161049e9190610ebb565b507f0fed8c96a67dfedd8d310632d543180833f046cfe2f02dbc3b533e0e57d60f08600160009054906101000a900473ffffffffffffffffffffffffffffffffffffffff16826040516104f2929190610fd7565b60405180910390a150565b60008054906101000a900473ffffffffffffffffffffffffffffffffffffffff1681565b600160009054906101000a900473ffffffffffffffffffffffffffffffffffffffff1673ffffffffffffffffffffffffffffffffffffffff163373ffffffffffffffffffffffffffffffffffffffff161461057b57600080fd5b600034116105be576040517f08c379a00000000000000000000000000000000000000000000000000000000081526004016105b590611053565b60405180910390fd5b60008173ffffffffffffffffffffffffffffffffffffffff16346040516105e4906110a4565b60006040518083038185875af1925050503d8060008114610621576040519150601f19603f3d011682016040523d82523d6000602084013e610626565b606091505b505090508061063457600080fd5b7f1b0f90c0b73ff53b6214d863ca6ef1fc552d7fd947567f98af9ad119439b964582346040516106659291906110b9565b60405180910390a15050565b600160009054906101000a900473ffffffffffffffffffffffffffffffffffffffff1681565b606060026000600160009054906101000a900473ffffffffffffffffffffffffffffffffffffffff1673ffffffffffffffffffffffffffffffffffffffff1673ffffffffffffffffffffffffffffffffffffffff168152602001908152602001600020805480602002602001604051908101604052809291908181526020016000905b828210156107c657838290600052602060002001805461073990610cde565b80601f016020809104026020016040519081016040528092919081815260200182805461076590610cde565b80156107b25780601f10610787576101008083540402835291602001916107b2565b820191906000526020600020905b81548152906001019060200180831161079557829003601f168201915b50505050508152602001906001019061071a565b50505050905090565b6000604051905090565b600080fd5b600080fd5b600073ffffffffffffffffffffffffffffffffffffffff82169050919050565b600061080e826107e3565b9050919050565b61081e81610803565b811461082957600080fd5b50565b60008135905061083b81610815565b92915050565b600080fd5b600080fd5b6000601f19601f8301169050919050565b7f4e487b7100000000000000000000000000000000000000000000000000000000600052604160045260246000fd5b6108948261084b565b810181811067ffffffffffffffff821117156108b3576108b261085c565b5b80604052505050565b60006108c66107cf565b90506108d2828261088b565b919050565b600067ffffffffffffffff8211156108f2576108f161085c565b5b6108fb8261084b565b9050602081019050919050565b82818337600083830152505050565b600061092a610925846108d7565b6108bc565b90508281526020810184848401111561094657610945610846565b5b610951848285610908565b509392505050565b600082601f83011261096e5761096d610841565b5b813561097e848260208601610917565b91505092915050565b6000806040838503121561099e5761099d6107d9565b5b60006109ac8582860161082c565b925050602083013567ffffffffffffffff8111156109cd576109cc6107de565b5b6109d985828601610959565b9150509250929050565b6000602082840312156109f9576109f86107d9565b5b6000610a078482850161082c565b91505092915050565b600081519050919050565b600082825260208201905092915050565b6000819050602082019050919050565b600081519050919050565b600082825260208201905092915050565b60005b83811015610a76578082015181840152602081019050610a5b565b60008484015250505050565b6000610a8d82610a3c565b610a978185610a47565b9350610aa7818560208601610a58565b610ab08161084b565b840191505092915050565b6000610ac78383610a82565b905092915050565b6000602082019050919050565b6000610ae782610a10565b610af18185610a1b565b935083602082028501610b0385610a2c565b8060005b85811015610b3f5784840389528151610b208582610abb565b9450610b2b83610acf565b925060208a01995050600181019050610b07565b50829750879550505050505092915050565b60006020820190508181036000830152610b6b8184610adc565b905092915050565b6000819050919050565b610b8681610b73565b82525050565b6000602082019050610ba16000830184610b7d565b92915050565b600060208284031215610bbd57610bbc6107d9565b5b600082013567ffffffffffffffff811115610bdb57610bda6107de565b5b610be784828501610959565b91505092915050565b6000610bfb826107e3565b9050919050565b610c0b81610bf0565b82525050565b6000602082019050610c266000830184610c02565b92915050565b610c3581610bf0565b8114610c4057600080fd5b50565b600081359050610c5281610c2c565b92915050565b600060208284031215610c6e57610c6d6107d9565b5b6000610c7c84828501610c43565b91505092915050565b610c8e81610803565b82525050565b6000602082019050610ca96000830184610c85565b92915050565b7f4e487b7100000000000000000000000000000000000000000000000000000000600052602260045260246000fd5b60006002820490506001821680610cf657607f821691505b602082108103610d0957610d08610caf565b5b50919050565b60008190508160005260206000209050919050565b60006020601f8301049050919050565b600082821b905092915050565b600060088302610d717fffffffffffffffffffffffffffffffffffffffffffffffffffffffffffffffff82610d34565b610d7b8683610d34565b95508019841693508086168417925050509392505050565b6000819050919050565b6000610db8610db3610dae84610b73565b610d93565b610b73565b9050919050565b6000819050919050565b610dd283610d9d565b610de6610dde82610dbf565b848454610d41565b825550505050565b600090565b610dfb610dee565b610e06818484610dc9565b505050565b5b81811015610e2a57610e1f600082610df3565b600181019050610e0c565b5050565b601f821115610e6f57610e4081610d0f565b610e4984610d24565b81016020851015610e58578190505b610e6c610e6485610d24565b830182610e0b565b50505b505050565b600082821c905092915050565b6000610e9260001984600802610e74565b1980831691505092915050565b6000610eab8383610e81565b9150826002028217905092915050565b610ec482610a3c565b67ffffffffffffffff811115610edd57610edc61085c565b5b610ee78254610cde565b610ef2828285610e2e565b600060209050601f831160018114610f255760008415610f13578287015190505b610f1d8582610e9f565b865550610f85565b601f198416610f3386610d0f565b60005b82811015610f5b57848901518255600182019150602085019450602081019050610f36565b86831015610f785784890151610f74601f891682610e81565b8355505b6001600288020188555050505b505050505050565b600082825260208201905092915050565b6000610fa982610a3c565b610fb38185610f8d565b9350610fc3818560208601610a58565b610fcc8161084b565b840191505092915050565b6000604082019050610fec6000830185610c85565b8181036020830152610ffe8184610f9e565b90509392505050565b7f506c65617365207061792067726561746572207468616e203020657468657200600082015250565b600061103d601f83610f8d565b915061104882611007565b602082019050919050565b6000602082019050818103600083015261106c81611030565b9050919050565b600081905092915050565b50565b600061108e600083611073565b91506110998261107e565b600082019050919050565b60006110af82611081565b9150819050919050565b60006040820190506110ce6000830185610c02565b6110db6020830184610b7d565b939250505056fea26469706673582212206e3570bb27be2c9c3f8a2ffb3e16a2c7fc23db372e089166c583ae87eebf745464736f6c63430008120033",
    "linkReferences": {},
    "deployedLinkReferences": {}
}